S0150000736B657463685F6175673139612E7372656326
S11300000C9462000C948A000C948A000C948A006C
S11300100C948A000C948A000C948A000C948A0034
S11300200C948A000C948A000C948A000C948A0024
S11300300C948A000C948A000C948A000C948A0014
S11300400C948C090C948A000C9416080C9448089F
S11300500C948A000C948A000C948A000C948A00F4
S11300600C948A000C948A0000000008000201002D
S1130070000304070000000000000000010204085F
S113008010204080010204081020010204081020FE
S1130090040404040404040402020202020203032A
S11300A003030303000000002300260029000000CE
S11300B00000250028002B00000000002400270079
S11300C02A00780811241FBECFEFD8E0DEBFCDBFD1
S11300D014E0A0E0B1E0E6EAF7E102C005900D9279
S11300E0A432B107D9F724E0A4E2B4E001C01D9220
S11300F0AC3FB207E1F710E0C2E6D0E004C02197BC
S1130100FE010E94BC0BC136D107C9F70E94A608A4
S11301100C94D10B0C940000FC0181E046895789B2
S1130120208D318D4217530709F480E00895FC01B6
S1130130208D318D86899789822793276823792397
S113014081E0672B09F480E00895DC015896ED9175
S1130150FC915997AF01409550954623572391E060
S1130160452B09F490E056962D913C9157972E27F4
S11301703F276223732381E0672B09F480E08923FE
S11301800895DC015696ED91FC915797AF01409587
S113019050954623572391E0452B09F490E0589657
S11301A02D913C9159972E273F276223732381E099
S11301B0672B09F480E089230895FC01808D918DDB
S11301C0809590956823792381E0672B09F480E07A
S11301D00895860F911DFC0180810895FC0183A57B
S11301E0833031F0813031F08C3031F080E008958B
S11301F081E0089582E0089583E00895DC019FB7CB
S1130200F8945B96ED91FC915C9720815A968C91C1
S1130210822B80839FBF0895DC019FB7F8945E967C
S1130220ED91FC915F9720815D968C91822B808368
S11302309FBF08958F929F92AF92BF92CF92DF9209
S1130240EF92FF920F931F93CF93DF93EC0100E0A3
S113025010E0F12CC62ED12C812C912C54018394C6
S1130260E02EC601002E02C0959587950A94E2F708
S113027080FF04C0CE010E940C010AC02FB7F8947D
S1130280EE8DFF8D90818D8D8095892380832FBF86
S11302902FB7F894EB8DFC8D90818A8D80958923FE
S11302A080832FBF84E090E00E94430AECA1FDA16B
S11302B090818BA1892351F0D501C40104C0880F1A
S11302C0991FAA1FBB1FEA94D2F7F82ACE010E94F5
S11302D0FE000F5F1F4F0830110509F0C1CFCE019A
S11302E00E940C0183E090E00E94430A8F2DDF916D
S11302F0CF911F910F91FF90EF90DF90CF90BF901F
S1130300AF909F908F900895DC019FB7F8949196D9
S1130310ED91FC919297208190968C91822B808311
S11303209FBF0895DC012FB7F8949196ED91FC914D
S11303309297908190968C918095892380832FBF8A
S11303400895CF92DF92EF92FF920F931F93CF9372
S1130350DF93EC016B01042F0E949201760110E0FF
S1130360C7018C199D09801791073CF4F70161912D
S11303707F01CE010E941A01F3CFCE010E948401B5
S11303806AA570E080E090E0DF91CF911F910F911A
S1130390FF90EF90DF90CF900C94070ACF93DF93F8
S11303A0EC0145E060E271E00E94A10149E067E1EF
S11303B071E0CE010E94A1018CA5882331F045E0B3
S11303C060E071E0CE010E94A1018DA5882331F087
S11303D049E06EE071E0CE010E94A10149E065E0D0
S11303E071E0CE01DF91CF910C94A1012F923F9245
S11303F04F925F926F927F928F929F92AF92BF9231
S1130400CF92DF92EF92FF920F931F93CF93DF93DC
S1130410CDB7DEB729970FB6F894DEBF0FBECDBFB8
S11304204C01762E142F0E94D609F401C6A0D7A041
S1130430E0A4F1A46C197D098E099F090E94250688
S11304406B017C0120E030E84BEB54E40E94D706BA
S113045018161CF4C4010E94CE01F40162A570E0D8
S113046080E090E00E9427061B012C019B01AC0157
S1130470C701B6010E94F10587FF0AC0A7019601D2
S1130480C201B1010E9484050E94F6050E94070A78
S11304901123E1F0612F70E080E090E01F921F9241
S11304A01F922FEF2F9320E4A22EB12CC12CD12C1C
S11304B0E12CF12C8701EA9420E030E0A9010E94AC
S11304C01E0B162F0F900F900F900F90CE010196D8
S11304D07C0189E0F70111928A95E9F781E089832B
S11304E082E48A837C821D8385E0382E8E01065F38
S11304F01F4F6401F9E0CF0ED11C540185E1A80E11
S1130500B11CC4010E940C01C4010E94FE00C4017C
S11305100E94920183E090E00E94430A2701340183
S1130520F20161912F01C4010E941A01F301819328
S11305303F0140165106A1F7F4018181893749F042
S1130540C4010E948401F4018181807F803769F4B1
S113055019C0360160E0C4010E941A01F3018193BD
S11305603F01EA15FB05B1F7EBCFC4010E94CE01B0
S1130570F40162A570E080E090E00E94070A3A94DA
S11305803110BFCFF4018181807F803731F0F401D5
S113059082A58A3010F48F5F82A7F401808D918D3B
S11305A0978B868B83819481918F808F0E94D6094B
S11305B0F40166A377A380A791A79181907F81E03E
S11305C0903709F080E029960FB6F894DEBF0FBE8D
S11305D0CDBFDF91CF911F910F91FF90EF90DF90EE
S11305E0CF90BF90AF909F908F907F906F905F90CF
S11305F04F903F902F90089540E060E00C94F601F6
S11306006F927F928F929F92AF92BF92CF92EF920E
S1130610FF920F931F93CF93DF93CDB7DEB72B9742
S11306200FB6F894DEBF0FBECDBF5C01862F70E01D
S1130630FB01E458FF4FE491D5015A96EC935A9785
S1130640FB01E057FF4FE491F0E0EE0FFF1FE2558E
S1130650FF4F65917491F501748F638F642F70E07F
S1130660FB01E458FF4FE4915D96EC935D97FB0129
S1130670E057FF4FE491F0E0EE0FFF1FE255FF4F0C
S113068065917491F501778F668F622F70E0FB019D
S1130690E458FF4FE4919096EC93FB01E057FF4F31
S11306A0E491F0E0EE0FFF1FE255FF4F6591749166
S11306B0F50172A361A3A02FB0E0FD01E458FF4F40
S11306C09491F50193A3FD01E057FF4FE491F0E00D
S11306D0EE0FFF1FEC55FF4F65917491D501959670
S11306E07C936E93949761E02A874B870E94B20AA9
S11306F061E02A85822F0E94B20A61E04B85842F33
S11307000E94B20A60E0802F0E94B20A61E0802F4A
S11307100E94EE0AC5010E940C01C5010E94FE0060
S1130720C5010E94FC02C5010E94FC02F501818101
S1130730813429F0833719F0893709F070C081E0DA
S1130740D5019A968C938BE0882E912CFF24F394F8
S113075045E060E271E0C5010E94A10183E090E000
S11307600E94430AC5010E940C01C5010E94FE00BB
S1130770C5010E94920183E090E00E94430A05E2D1
S113078011E0CE0101963C01F80161918F01C50190
S11307900E941A01D3018D933D01B1E00E321B0773
S11307A099F7C5010E9484018C81F50183A749E072
S11307B067E171E0C5010E94A101CC2049F045E048
S11307C060E071E0C5010E94A101D5019C96FC92F4
S11307D0EE2041F049E06EE071E0C5010E94A10104
S11307E0F501F5A649E065E071E0C5010E94A101AB
S11307F0C5010E94FC02D50111968C91EE2021F0D6
S1130800893789F0833769F0833769F0B1E08B1A4F
S1130810910859F0F50182A58F5F82A799CF81E0F5
S113082005C083E003C080E001C082E02B960FB6D0
S1130830F894DEBF0FBECDBFDF91CF911F910F9112
S1130840FF90EF90CF90BF90AF909F908F907F904C
S11308506F900895CF92EF920F9326E040E051EE0F
S113086060E070E086E594E00E94B1076CE271E01C
S113087080E090E00E94070AC12CE12C0DE02AE000
S11308804BE06CE088E294E00E94000390E09093D7
S1130890270480932604009769F56EE271E086E5EB
S11308A094E00E94F50867E571E086E594E00E9413
S11308B0F50864E671E086E594E00E94FB086AE6C8
S11308C071E086E594E00E94F50864E671E086E54F
S11308D094E00E94FB0864E771E086E594E00E94DE
S11308E0FB0868EC71E086E594E00E94FB0861E097
S11308F072E010C08130910519F461E472E00AC01D
S11309008230910519F467EB72E004C0039731F467
S113091067E373E086E594E00E94FB0888E294E0D4
S11309200E94EE0080932504813059F038F0823023
S113093059F0833091F465EB73E008C069E773E024
S113094005C063EC73E002C068E973E086E594E0F7
S11309500F91EF90CF900C94F5080F91EF90CF90FA
S113096008954091240460E088E294E00E94F60136
S11309706FE088E294E00E94E9008093240488E216
S113098094E00E948C00882309F446C062E070E081
S113099088E294E00E94DD00882331F06FED73E07B
S11309A086E594E00E94FB0864E070E088E294E04D
S11309B00E94DD00882331F062EE73E086E594E066
S11309C00E94FB0860E071E088E294E00E94DD0090
S11309D0882331F065EE73E086E594E00E94FB081D
S11309E060E072E088E294E00E94DD00882331F048
S11309F068EE73E086E594E00E94FB0860E070E135
S1130A0088E294E00E94DD00882331F06BEE73E00D
S1130A1086E594E00E94FB0860E070E288E294E0DE
S1130A200E94A500882331F06DEE73E086E594E022
S1130A300E94FB0860E070E488E294E00E94970062
S1130A40882331F06FEE73E086E594E00E94FB08A2
S1130A5060E070E888E294E00E94C100882331F0ED
S1130A6061EF73E086E594E00E94FB0863EF73E0B6
S1130A7086E594E00E94F50868E088E294E00E942C
S1130A80E9004AE050E0682F86E594E00E946E0990
S1130A9061E074E086E594E00E94F50867E088E28E
S1130AA094E00E94E9004AE050E0682F86E594E073
S1130AB00E946E0961E074E086E594E00E94F50806
S1130AC066E088E294E00E94E9004AE050E0682F82
S1130AD086E594E00E946E0961E074E086E594E0A6
S1130AE00E94F50865E088E294E00E94E9004AE08B
S1130AF050E0682F86E594E00E94750962E370E097
S1130B0080E090E00C94070A5058BB27AA270E9463
S1130B109C050C949D060E948F0638F00E94960650
S1130B2020F039F49F3F19F426F40C948C060EF44B
S1130B30E095E7FB0C948606E92F0E94AE0658F375
S1130B40BA17620773078407950720F079F4A6F5AE
S1130B500C94D0060EF4E0950B2EBA2FA02D0B01A9
S1130B60B90190010C01CA01A0011124FF27591BEE
S1130B7099F0593F50F4503E68F11A16F040A22FF4
S1130B80232F342F4427585FF3CF46953795279565
S1130B90A795F0405395C9F77EF41F16BA0B620B64
S1130BA0730B840BBAF09150A1F0FF0FBB1F661FAB
S1130BB0771F881FC2F70EC0BA0F621F731F841FEE
S1130BC048F4879577956795B795F7959E3F08F014
S1130BD0B0CF9395880F08F09927EE0F97958795D6
S1130BE008950E94620608F481E008950E94B60602
S1130BF088F09F5798F0B92F9927B751B0F0E1F0DA
S1130C00660F771F881F991F1AF0BA95C9F714C089
S1130C10B13091F00E94D006B1E008950C94D00652
S1130C20672F782F8827B85F39F0B93FCCF38695C2
S1130C3077956795B395D9F73EF49095809570951F
S1130C4061957F4F8F4F9F4F0895E89409C097FB9C
S1130C503EF490958095709561957F4F8F4F9F4F8F
S1130C609923A9F0F92F96E9BB279395F6958795D3
S1130C7077956795B795F111F8CFFAF4BB0F11F496
S1130C8060FF1BC06F5F7F4F8F4F9F4F16C088233D
S1130C9011F096E911C0772321F09EE8872F762F73
S1130CA005C0662371F096E8862F70E060E02AF0B4
S1130CB09A95660F771F881FDAF7880F96958795A0
S1130CC097F90895990F0008550FAA0BE0E8FEEF75
S1130CD016161706E807F907C0F012161306E407FC
S1130CE0F50798F0621B730B840B950B39F40A26F5
S1130CF061F0232B242B252B21F408950A2609F4D3
S1130D00A140A6958FEF811D811D089597F99F67D6
S1130D1080E870E060E008959FEF80EC089500247F
S1130D200A941616170618060906089500240A944C
S1130D3012161306140605060895092E0394000CD2
S1130D4011F4882352F0BB0F40F4BF2B11F460FF61
S1130D5004C06F5F7F4F8F4F9F4F089557FD90588A
S1130D60440F551F59F05F3F71F04795880F97FB6B
S1130D70991F61F09F3F79F0879508951216130625
S1130D801406551FF2CF4695F1DF08C01616170654
S1130D901806991FF1CF8695710561050894089589
S1130DA0E894BB2766277727CB0197F908950E941B
S1130DB0620608F48FEF0895FC01918D228D892F2E
S1130DC090E0805C9F4F821B91098F73992708954F
S1130DD0FC01918D828D981731F0828DE80FF11D01
S1130DE0858D90E008958FEF9FEF0895FC01918D1C
S1130DF0828D981761F0828DDF01A80FB11D5D9679
S1130E008C91928D9F5F9F73928F90E008958FEFE6
S1130E109FEF0895FC01538D448D252F30E0842FDE
S1130E2090E0821B930B541710F0CF96089501970E
S1130E3008958EE698E0892B49F080E090E0892BB4
S1130E4029F00E946E0881110C9400000895FC01A1
S1130E50848DDF01A80FB11DA35ABF4F2C91848D3F
S1130E6090E001968F739927848FA689B7892C9374
S1130E70A089B1898C9180648C93938D848D98130F
S1130E8006C00288F389E02D80818F7D80830895D8
S1130E90CF93DF93EC01888D8823C9F0EA89FB891D
S1130EA0808185FD05C0A889B9898C9186FD0FC014
S1130EB00FB607FCF5CF808185FFF2CFA889B989E9
S1130EC08C9185FFEDCFCE010E942707E7CFDF91FC
S1130ED0CF910895EF92FF920F931F93CF93DF93D7
S1130EE0EC0181E0888F9B8D8C8D981305C0E88977
S1130EF0F989808185FD24C0F62E0B8D10E00F5FEB
S1130F001F4F0F731127E02E8C8DE8120CC00FB603
S1130F1007FCFACFE889F989808185FFF5CFCE01F6
S1130F200E942707F1CF8B8DFE01E80FF11DE35AD4
S1130F30FF4FF0820B8FEA89FB898081806207C0B2
S1130F40EE89FF896083E889F989808180648083E0
S1130F5081E090E0DF91CF911F910F91FF90EF908E
S1130F600895CF92DF92EF92FF921F93CF93DF9376
S1130F70EC016A017B01122FE889F98982E0808300
S1130F804115514E61057105B1F060E079E08DE3E2
S1130F9090E0A70196010E94700BDA01C901019744
S1130FA0A109B109B695A79597958795AC01411507
S1130FB080E15807A8F0E889F989108260E874E8AC
S1130FC08EE190E0A70196010E94700BBA01A9017D
S1130FD0415051096109710976956795579547956F
S1130FE0EC85FD855083EE85FF854083188EEC8962
S1130FF0FD891083EA89FB89808180618083EA8985
S1131000FB89808188608083EA89FB89808180688C
S11310108083EA89FB8980818F7D8083DF91CF91F2
S11310201F91FF90EF90DF90CF9008951F920F9241
S11310300FB60F9211242F938F939F93EF93FF93E7
S1131040E0916604F09167048081E0916C04F09172
S11310506D0482FD12C0908180916F048F5F8F7345
S113106020917004821751F0E0916F04F0E0EA5A85
S1131070FB4F958F80936F0401C08081FF91EF91A6
S11310809F918F912F910F900FBE0F901F901895E5
S11310901F920F920FB60F9211242F933F934F93E9
S11310A05F936F937F938F939F93AF93BF93EF93CC
S11310B0FF9386E594E00E942707FF91EF91BF918B
S11310C0AF919F918F917F916F915F914F913F91DC
S11310D02F910F900FBE0F901F90189586E594E006
S11310E00E94DC0621E0892B09F420E0822F089578
S11310F0E6E5F4E01382128288EE93E0A0E0B0E02B
S113110084839583A683B78387E094E09183808367
S113111085EC90E09587848784EC90E097878687B8
S113112080EC90E0918B808B81EC90E0938B828BB0
S113113082EC90E0958B848B86EC90E0978B868B89
S1131140118E128E138E148E089508950E944E0AE5
S11311500E94A5080E942A04C9E1D7E00E94B104B4
S11311602097E1F30E941907F9CFCF92DF92EF9213
S1131170FF920F931F93CF93DF936C017A018B013E
S1131180C0E0D0E0CE15DF0589F0D8016D918D0166
S1131190D601ED91FC910190F081E02DC6010995F5
S11311A0892B11F47E0102C02196ECCFC701DF9197
S11311B0CF911F910F91FF90EF90DF90CF90089502
S11311C06115710579F0FB0101900020E9F7319771
S11311D0AF01461B570BDC01ED91FC910280F381BA
S11311E0E02D099480E090E008950C94E00865E116
S11311F074E00C94E0080F931F93CF93DF93EC01FA
S11312000E94E0088C01CE010E94F708800F911F14
S1131210DF91CF911F910F9108958F929F92AF927A
S1131220BF92CF92DF92EF92FF920F931F93CF93CF
S1131230DF93CDB7DEB7A1970FB6F894DEBF0FBE2C
S1131240CDBF7C01D42EC52EDB0119A2223008F4B7
S11312502AE08E010F5D1F4F822E912CA12CB12C00
S11312606D2D7C2DCD01A50194010E94700BD22E11
S1131270C32EDA01015011096A3071058105910507
S113128010F4605D01C0695CF8016083232B242B9A
S1131290252B31F7B801C7010E94E008A1960FB6CB
S11312A0F894DEBF0FBECDBFDF91CF911F910F9198
S11312B0FF90EF90DF90CF90BF90AF909F908F9072
S11312C008952115310541F4DC01ED91FC91019063
S11312D0F081E02D642F09940C940D099A01462F96
S11312E050E060E070E00C9461090F931F93CF937A
S11312F0DF93EC019A01462F50E060E070E00E9419
S113130061098C01CE010E94F708800F911FDF91C3
S1131310CF911F910F9108951F920F920FB60F92C4
S113132011242F933F938F939F93AF93BF938091F7
S1131330F4049091F504A091F604B091F70430916F
S1131340F30423E0230F2D3720F40196A11DB11DD2
S113135005C026E8230F0296A11DB11D2093F304B6
S11313608093F4049093F504A093F604B093F704E7
S11313708091F8049091F904A091FA04B091FB04CF
S11313800196A11DB11D8093F8049093F904A093D4
S1131390FA04B093FB04BF91AF919F918F913F9159
S11313A02F910F900FBE0F901F9018952FB7F894A0
S11313B06091F4047091F5048091F6049091F7041F
S11313C02FBF08953FB7F8948091F8049091F904E1
S11313D0A091FA04B091FB0426B5A89B05C02F3F49
S11313E019F00196A11DB11D3FBFBA2FA92F982F47
S11313F08827820F911DA11DB11DBC01CD0142E0C2
S1131400660F771F881F991F4A95D1F708958F9209
S11314109F92AF92BF92CF92DF92EF92FF926B01B5
S11314207C010E94E2094B015C01C114D104E10476
S1131430F10401F10E945F0B0E94E209DC01CB017F
S113144088199909AA09BB09883E9340A105B105E9
S113145060F321E0C21AD108E108F10888EE880E91
S113146083E0981EA11CB11CC114D104E104F10451
S113147019F7DBCFFF90EF90DF90CF90BF90AF9044
S11314809F908F9008958230910538F0880F991FAE
S1131490880F991F05970197F1F70895789484B5FB
S11314A0826084BD84B5816084BD85B5826085BD5C
S11314B085B5816085BDEEE6F0E080818160808342
S11314C0E1E8F0E010828081826080838081816025
S11314D08083E0E8F0E0808181608083E1EBF0E0EC
S11314E0808184608083E0EBF0E080818160808390
S11314F0EAE7F0E080818460808380818260808379
S11315008081816080838081806880831092C100A3
S11315100895833081F028F4813099F08230A1F06D
S113152008958730A9F08830B9F08430D1F48091DF
S113153080008F7D03C0809180008F77809380002E
S1131540089584B58F7702C084B58F7D84BD0895D6
S11315508091B0008F7703C08091B0008F7D80931D
S1131560B0000895CF93DF9390E0FC01E458FF4F5F
S11315702491FC01E057FF4F8491882361F190E0AE
S1131580880F991FFC01E854FF4FC591D491FC01C9
S1131590E255FF4FA591B491611109C09FB7F8942A
S11315A08881209582238883EC912E230BC062309E
S11315B061F49FB7F8943881822F809583238883C0
S11315C0EC912E2B2C939FBF06C08FB7F894E88123
S11315D02E2B28838FBFDF91CF9108951F93CF9334
S11315E0DF93282F30E0F901E859FF4F8491F90186
S11315F0E458FF4FD491F901E057FF4FC491CC2335
S1131600C9F0162F81110E94890AEC2FF0E0EE0F29
S1131610FF1FE255FF4FA591B4918FB7F8941111B4
S113162005C09C91ED2FE095E92302C0EC91ED2BD0
S1131630EC938FBFDF91CF911F9108954F925F92EA
S11316406F927F92AF92BF92CF92DF92EF92FF920E
S11316500F931F93CF93DF93CDB7DEB729013A01E0
S11316609B01AC01241935094609570989899A89CE
S1131670AB89BC89BC01CD016A197B098C099D0920
S11316800E94600BA80197012419350946095709DE
S11316900E94920BCA01B9016A0D7B1D8C1D9D1D10
S11316A0DF91CF911F910F91FF90EF90DF90CF903A
S11316B0BF90AF907F906F905F904F900895089582
S11316C0DB018F939F930E94B10BBF91AF91A29FB7
S11316D0800D911DA39F900DB29F900D112408952C
S11316E0A1E21A2EAA1BBB1BFD010DC0AA1FBB1F22
S11316F0EE1FFF1FA217B307E407F50720F0A21B94
S1131700B30BE40BF50B661F771F881F991F1A9400
S113171069F760957095809590959B01AC01BD012A
S1131720CF010895052E97FB1EF400940E94A90B87
S113173057FD07D00E94700B07FC03D04EF40C94A5
S1131740A90B50954095309521953F4F4F4F5F4FD2
S1131750089590958095709561957F4F8F4F9F4F19
S113176008950E94C20BA59F900DB49F900DA49F55
S1131770800D911D11240895EE0FFF1F0590F49123
S1131780E02D0994A29FB001B39FC001A39F700DE7
S1131790811D1124911DB29F700D811D1124911D75
S10917A00895F894FFCF48
S11317A6014D000001014300005A5A5A5A5A014F8A
S11317B600FFFF03000000014400010300000000D5
S11317C601430001000145005A5A5A5A5A5A466FB3
S11317D6756E6420436F6E74726F6C6C65722C2028
S11317E6636F6E6669677572656420737563636596
S11317F6737366756C2000707265737375726573A6
S1131806203D200066616C73650072756D626C65BF
S1131816203D2000547279206F757420616C6C2011
S113182674686520627574746F6E732C2058207703
S1131836696C6C20766962726174652074686520CF
S1131846636F6E74726F6C6C65722C206661737450
S1131856657220617320796F7520707265737320C9
S11318666861726465723B00686F6C64696E6720B8
S11318764C31206F722052312077696C6C20707263
S1131886696E74206F75742074686520616E616C6E
S11318966F6720737469636B2076616C7565732E4C
S11318A6004E6F74653A20476F20746F2077777700
S11318B62E62696C6C706F727465722E696E666FD7
S11318C620666F72207570646174657320616E643E
S11318D620746F207265706F727420627567732E40
S11318E6004E6F20636F6E74726F6C6C6572206647
S11318F66F756E642C20636865636B207769726903
S11319066E672C2073656520726561646D652E743F
S1131916787420746F20656E61626C6520646562FC
S113192675672E207669736974207777772E6269D6
S11319366C6C706F727465722E696E666F20666F5A
S1131946722074726F75626C6573686F6F74696EFA
S113195667207469707300436F6E74726F6C6C6584
S11319667220666F756E6420627574206E6F7420C3
S1131976616363657074696E6720636F6D6D616E14
S113198664732E2073656520726561646D652E74BB
S1131996787420746F20656E61626C65206465627C
S11319A675672E205669736974207777772E626976
S11319B66C6C706F727465722E696E666F20666FDA
S11319C6722074726F75626C6573686F6F74696E7A
S11319D667207469707300436F6E74726F6C6C6504
S11319E672207265667573696E6720746F20656E02
S11319F674657220507265737375726573206D6FAA
S1131A0664652C206D6179206E6F74207375707017
S1131A166F72742069742E2000556E6B6E6F776E2C
S1131A2620436F6E74726F6C6C6572207479706586
S1131A3620666F756E642000477569746172486527
S1131A46726F20436F6E74726F6C6C657220666F72
S1131A56756E642000576972656C65737320536FE5
S1131A666E79204475616C53686F636B20436F6EA7
S1131A7674726F6C6C657220666F756E6420004CB0
S1131A8633005233004C32005232005400430058A3
S1131A96005300537469636B2056616C7565733A21
S1131AA6002C00000000006A07B5080A074807DC96
S1131AB606F606E8060D0A006E616E00696E66009B
S1071AC66F766600CD
S9030000FC
